S01A000050726F796563746F46696E616C4D6963726F2E73726563D1
S113000078C0000088C0000086C0000084C00000E2
S113001082C0000080C000007EC000007CC00000E0
S11300207AC0000078C0000076C0000074C00000F0
S113003072C0000070C000006EC000006CC0000000
S11300406AC0000068C0000066C0000064C0000010
S11300508BC0000060C000005EC000005CC00000F7
S11300605AC0000058C0000056C0000054C0000030
S113007052C0000050C000004EC000004CC0000040
S11300804AC0000048C0000046C0000044C0000050
S113009042C0000040C000003EC000003CC0000060
S11300A03AC0000038C0000036C0000034C0000070
S11300B032C0000030C000002EC000002CC0000080
S11300C02AC0000028C0000026C0000024C0000090
S11300D022C0000020C000001EC000001CC00000A0
S11300E01AC000000E0115011C01220135013F0157
S11300F0520111241FBECFEFD1E2DEBFCDBF00E01D
S11301000CBF22E0A0E0B2E001C01D92A530B2070E
S1130110E1F7D5D0EBC074CFECE7F0E080818066E6
S11301208083EAE7F0E0808187688083EBE7F0E092
S1130130808180830895E1E8F0E080818560808398
S1130140EFE6F0E08081816080830895E1ECF0E0E7
S1130150808188608083E2ECF0E080818660808327
S113016087E68093C40008951F920F920FB60F92F2
S113017011248F9384EF809384008FEF8093850004
S11301808F910F900FBE0F901F90189500917A00D9
S113019004FFFCCF809179008E5D809300028093F0
S11301A0C6000091C00006FFFCCF80E28093C0002F
S11301B080910402E1E0E80FE093040280B18093AF
S11301C003028A3CD9F090910102903821F485EF22
S11301D08093030213C08A3E89F080910202803822
S11301E021F485EF8093030209C0803C21F480EE62
S11301F08093030203C080B180930302E83008F0C7
S113020058C08E2F90E0FC013197E730F10508F0DB
S113021052C08827EE58FF4F8F4F60C08091030271
S11302208E3F09F048C081E085B9809103028C3F7C
S113023009F041C083E085B980910302883FD9F574
S113024087E085B980910302823FA9F589E085B9E9
S11302502FEF87EA91E6215080409040E1F700C0FB
S1130260000080E88093020226C080910302853F4B
S113027011F585E085B980E8809302021CC0809165
S113028003028A3EC1F481E185B92FEF83ED90E347
S1130290215080409040E1F700C0000080E8809346
S11302A0010209C0809103028A3C29F480E285B9E5
S11302B002C01092040287EC80937A000895F894A7
S11302C08FEF84B910BA11B882B926DF34DF3EDF6C
S11302D0789487EC80937A0059DFFECFEE0FFF1FEE
S11302E0881F8BBF0790F691E02D1994F894FFCFE7
S9030000FC
